:1000000087EF09F00000000000EF00F000000000A2
:0A0010000000000000000000F3D71C
:0C001C00060E0D6E0D2EFED70000120027
:06002800000000001200C0
:0A002E00F6DF8A88F4DF8A981200DA
:100038008A948A96B80E0001F911836EF4DF1200D3
:100048007F0E0001F915016E01C0F9F001AC03D073
:0C0058008A808A9202D08A908A8212006C
:10006400120E006E000E016E830E0024E16E0F0E60
:100074000120E26EFF0EE66ED5DFD4DF8A848A9813
:100084008A868A88C9DF83CFF9F08A988A96CADF7C
:10009400C9DF120E006E000E016E830E0024E16EA5
:0E00A4000F0E0120E26EE66AF9C000F01200B5
:0E00B2008A988A848A96F9C083FFB8DF12000C
:1000C0007F0E0001F915006E00C0F9F08A948A963F
:1000D000BF0E001600C0F9F0008C00C0F9F000C09F
:0600E00083FFA5DF120002
:1000E600000E0001F35D0AE3F3517F0807E3000EFB
:1000F600F45D04E3F4513F0801E301D04AD0F3C0B4
:10010600F9F09FDFF4C0F9F0F933F99FF933F99F5D
:10011600F933F99F8EDFF3C0F9F0CFDFA0DF00C01F
:10012600F8F09DDF00C0F8F0F4C0F9F0F933F99F5C
:10013600F933F99FF933F99F7CDFF3C0F9F0BDDF9E
:10014600070EF415006E00C0F6F000C001F0010EB7
:10015600006E015004E000360090FF0FFBD700C090
:10016600F6F0001CF76F09D0F751F8170FD0F651CB
:10017600F8130CD0F651F81B09D0F551000AF4E03B
:10018600F551010AF4E0F551020AF4E0F8C0F9F07D
:040196008DDF1200E7
:10019A00000E0001F05D04E3F0517F0801E301D095
:1001AA0027D0000EEE5DD8A0EE6BEE513F0802E2BA
:1001BA003F0EEE6F000EEF5DD8A0EF6BEF513F08D8
:1001CA0002E23F0EEF6FEE51EF5D06E2EEC0F2F093
:1001DA00EFC0EEF0F2C0EFF0EE51EF5D09E3F0C0D0
:1001EA00F3F0EEC0F4F0F1C0F5F078DFEE2BF4D7BF
:0201FA001200F1
:1001FC000B6A0A6A096A00500402F4CF09F0F3CFC3
:10020C0008F001500502F4CF0BF0F3CF0AF00050C8
:10021C000502F3500926F4500A22E86A0B22015019
:10022C000402F3500926F4500A22E86A0B2208C093
:10023C0000F009C001F00AC002F00BC003F012007C
:10024C00EAC0D1F0EBC0D2F0000E0001D36FD46F36
:06025C00010ECA6F120042
:10026200020E0C6E490E0D6E0D2EFED70C2EFCD713
:0602720000000000120074
:10027800AECF01F0ABA202D0AB98AB8801C000F0C2
:02028800120062
:0A028A00000E9EBA010E006E120075
:10029400EAC0F3F0EBC0F4F0010E0001F56F21DFCA
:0202A400120046
:1002A600220E0C6E086A096A0A6A0B6A0C06D8B432
:1002B6001FD0D8900B320A3209320832033202328A
:1002C60001320032D8A0F2D70C06D8B409D00450B7
:1002D60008260550092206500A2207500B22EAD7A3
:1002E600045008260550092206500A2207500B2200
:0202F6001200F4
:0E02F800ACB202D00000FCD7EAC0ADFF12008D
:10030600EBC0EEF00001ED51EB25EF6FEAC0F0F027
:08031600010EF16F3FDF120040
:10031E000134083609360450085E0550D8A0053C55
:10032E00095E003601360F0E0C6E013408360936A2
:10033E00045000A006D0085E0550D8A0053C095E0A
:10034E0005D008260550D8B0053C092600360136E2
:10035E000C2EEBD700B006D0045008260550D8B0AE
:08036E00053C09260000120005
:100376000001E851010A2EE1E451010F016E026A03
:10038600000EE4BFFF0E0222000E021802E1E05149
:1003960001181EE1800EE5BF7F0E006E800E005C28
:1003A60002E1E151E55D14E3E351E125016E026AE4
:1003B600000E0222800E0218006E800EE5BF7F0E30
:1003C600005C02E1E551015C03E3010E006E2FD0F3
:1003D600006A2DD0E051010F016E026A000E022262
:1003E600000EE4BFFF0E021802E10150E4191EE1FF
:1003F600800EE5BF7F0E006E800E005C02E1E151CB
:10040600E55D14E3E351E125016E026A000E022266
:10041600800E0218006E800EE5BF7F0E005C02E1C2
:10042600E551015C03E3010E006E01D0006A120083
:100436000001E66BE2C001F0010E006E015004E01F
:1004460000360090FF0FFBD700C0E5F0E0C0E9FFE3
:10045600E1C0EAFF0050EE14016E0152010ED8A46D
:10046600000E006EE451001A18E0E351000804E2A1
:10047600F5DEF4DEE307F9D7E0C0E9FFE1C0EAFF05
:10048600E551EE14016E0152010ED8A4000E006E65
:10049600E451001A02E0FF0EE66FE6C000F012001B
:1004A6000001CA5305E1010EEA6F000EEB6FCBDEC9
:1004B600D1C000F0D2C001F0D3C002F0D4C003F026
:1004C6006D0E046E4E0E056EC60E066E410E076E5E
:1004D600E7DE390E0024056E300E0120066E000E92
:1004E6000220076E000E0320086E07C000F008C049
:1004F60001F0000E08BEFF0E026E036EFF0E001620
:100506007F0E0116000E0216031600C0D1F001C0C0
:0C051600D2F002C0D3F003C0D4F01200F9
:100522000450000A08E10550000A05E1FF0E006EC2
:100532007F0E016E57D00D6A096A086A01500010D9
:10054200D8B4000C015005180A6E0ABE0D1E0B6AC3
:1005520005AE05D0041E051E042AD8B4052A01AE34
:1005620005D0001E011E002AD8B4012A0150051030
:100572000A6E0ABE10D0D2DE0BB020D00DAE000C37
:10058200001E011E002AD8B4012A081E091E082ACC
:10059200D8B4092A000C05AE0DD001BE07D0015017
:1005A200096E0050086E016A006AE8D7016A006AA3
:1005B200002A000C011E001E0B2ADDD7082AD8B41F
:1005C200092A0450085CD8A4D9D70550095CD8A4DC
:1005D200D5D7096A086A002AD8B4012A01AECED753
:0605E2000000FF0C1200F6
:1005E8000001E36BE0C0E9FFE1C0EAFFEECFE2F013
:1005F800E251000A0EE0E2C0EAF07ADE0001E32BE5
:10060800E351E025E96E000EE121EA6EEECFE2F05B
:04061800EFD7120006
:10061C000001E66BE76BE45342E0E451FF0AD8A417
:10062C00E4072DDE0050000A01E1FBD71FDE00C0FD
:10063C00E5F00001E651E025E16E000EE121E26EED
:10064C0000C0E6FFE62BE751E225E96E000EE32140
:10065C00EA6EEE50E51902E1E72B09D0E76BE2C038
:10066C00E9FFE3C0EAFFEE50E519D8B4E72BE751F8
:10067C00E225E96E000EE321EA6EEE50000A0EE16F
:10068C00E751E65D006E016A000E015A0050E0254C
:10069C00E16E0150E121E26EE66A06D0BCD7E0C003
:0A06AC00E1FFE1C0E2FFE66A120080
:0A06B600000EACB2010E006E12003F
:1006C0008A908A820001E26BE25107080EE3E2C0E1
:1006D000F9F0B2DCE16BE1513F0805E3E0C0F9F06D
:1006E000E8DCE12BF8D7E22BEFD78A928A80E26B25
:1006F000E25107080EE3E2C0F9F09EDCE16BE15144
:100700003F0805E3E0C0F9F0D4DCE12BF8D7E22B99
:04071000EFD712000D
:10071400E1C0EEF00001E351E125EF6FE0C0F0F03D
:06072400F16B39DD12004B
:0C072A000E0E0D6E0D2EFED7000012000A
:100736000001E46BE56BE66BE45107083DE3F96BFA
:1007460080DCE4C0F9F075DCF96BB7DCE36BE351F0
:100756003F0811E3E551E025F66EE651E121F76E1B
:10076600000EE221F86E0900F5CFF9F09FDCE54BAB
:10077600E62BE32BECD7400EF96F63DCE4C0F9F00F
:1007860058DC400EF96F99DC400EE36FE3517F08A9
:1007960011E3E551E025F66EE651E121F76E000E14
:1007A600E221F86E0900F5CFF9F080DCE54BE62B87
:0A07B600E32BECD7E42BC0D71200B0
:1007C0000001E251070801E286D0CB51E05D006EE6
:1007D000CCC001F0000E0156AFC004F0000E056E53
:1007E0000DDD00C0E8F001C0E9F0E1C0F9F068DC1F
:1007F000E2C0F9F021DCE46BAF51E45D49E2E15184
:100800007F0801E268D0E1C0F9F01EDCE2C0F9F037
:1008100013DCE1C0F9F054DC25DC00C0E5F022DC9B
:1008200000C0E5F0E1C0F9F00FDCE2C0F9F004DC53
:10083000E1C0F9F045DCE851B025F66EE951B1218F
:10084000F76E000EE9BFFF0EB221F86E0900F5CF7A
:1008500000F000C0E6F0E84BE92B001CE76F09D080
:10086000E7C0E5F00FD0E6C0E5F00CD0E651E51B9F
:1008700009D0E351000AF4E0E351010AF4E0E35146
:10088000020AF4E0E5C0F9F014DCE12BE42BB4D764
:10089000E1C0F9F024EC00F0E2C0F9F01CEC00F04B
:1008A000E1C0F9F00DDCFF0EE66FE76B0ED0E6C09D
:1008B000E5F0E6C0F9F059EC00F00DD0E7C0E5F046
:1008C000E7C0F9F059EC00F006D0E351000AEFE080
:0808D000E351010AF3E01200FC
:1008D800050E0001996F1E0E9A6F020E9B6F090E8E
:1008E8009C6F790E9D6F1E0E9E6F020E9F6F090EF4
:1008F800A06F400E956F200E966F020E976F020E36
:10090800986F050EEA6F1E0EEB6F020EEC6F090E64
:10091800ED6FF5DC9DC0EAF09EC0EBF09FC0ECF0F7
:10092800A0C0EDF0ECDC95C0EAF096C0EBF0AEDCD0
:020938001200AB
:10093A000001AD6BB36BB46B939A939893949396AF
:10094A00939093928A9A120E006E000E016E830E95
:10095A000024E16E0F0E0120E26EE66A8A948A96FE
:10096A008A908A828A8A3F0E836E17EC00F0C00E44
:10097A00836E17EC00F08A808A923F0E836E17EC22
:0C098A0000F0C00E836E17EC00F01200AD
:100996000900F5CFE6FF0006FBE10106F9E11200CA
:1009A600C26A00018B1D006E0050C116070EC012F0
:1009B600C08EDAC000F0003600900036009000507D
:1009C600C212C280AFDEC282C2A201D0FDD7C4CF9E
:1009D60001F0006AC3500012000E0112C29012000C
:1009E600780E0001E06F1A0EE16F000EE26FA0DED6
:1009F600820EE06F0F0EE16F010EE26F010EE36FE4
:100A0600E46B16DD005203E0E06B57DE01D0F0D751
:020A16001200CC
:100A1800FF0E0001CD6FFF0ECE6FFF0ECF6FFF0EE2
:100A2800D06FC26A8B1D006E0050C116070EC0122F
:060A3800C08EC280120016
:100A3E00F80E0001BD6F020EBE6FEA0EBF6F000E04
:100A4E00C06F780EC16F020EC26F000EC36F000E24
:100A5E00C46F8A0EB56F020EB66F000EB76F000E22
:100A6E00B86FB60EB96F060EBA6F000EBB6F000EE2
:100A7E00BC6FAC8A900EAB6E948E949C9EAA03D0E3
:080A8E00AECF00F0FBD712000F
:100A96000001DF6BAD51000A0EE1050EAF6F070EC8
:100AA600AE6F780EB06F1E0EB16F000EB26F200ED5
:100AB600CB6F000ECC6FDF51DA25E96E000EDB211D
:100AC600EA6EEE5216E0DF51DA25E96E000EDB2102
:100AD600EA6EEECFE0F0DCC0E1F0DDC0E2F0DEC0B1
:100AE600E3F06BDEAF51010F006E0050DC27DF2B09
:040AF600E2D7120031
:100AFA00DDDD0050010A01E0FBD7DAC0E0F0DBC01F
:060B0A00E1F06DDD1200B8
:100B1000300E000195258C6F300E96258D6F300EAE
:100B200073258E6F300E74258F6F300E9A25906F5F
:100B3000300E9E25916F4F0E926F4B0E936F946BFC
:020B40001200A1
:100B42009AC0A6F09EC0AAF095C0A1F096C0A2F0ED
:0A0B520097C0A3F098C0A4F01200B1
:100B5C0045EC01F00050000A01E1FAD7DAC0E0F0F0
:100B6C00DBC0E1F0800E0001E26F000EE36FFF0EC0
:060B7C00E46F4EDD1200E3
:100B820099DD0050010A01E0FBD7DAC0EAF07CEC03
:040B920001F012005C
:100B9600016A020E015C25E2730EE96E000EEA6E32
:100BA6000150E926D8B0EA2AEE50030A18E1026A93
:100BB600020E025C0BE2730EE16E000EE26E025054
:100BC600E126D8B0E22AE66A022AF2D70150000AE4
:100BD60003E1010E006E06D0020E006E03D0012A5C
:060BE600D8D7006A1200DE
:100BEC00000175510A0A04E17651010A01E108D0AD
:100BFC007551050A04E17651020A01E101D010D1C8
:100C0C0095C0F3F096C0F4F0F56B73EC00F09751CF
:100C1C009525006E00C095F098519625006E00C089
:100C2C0096F0800E9519006E800E030A005C14E29B
:100C3C00742B99C0E0F09AC0E1F09BC0E2F09CC02C
:100C4C00E3F062DD9DC0E0F09EC0E1F09FC0E2F0F9
:100C5C00A0C0E3F059DD3ADE800E7D0A006E800EF6
:100C6C009519005C14E2732B99C0E0F09AC0E1F086
:100C7C009BC0E2F09CC0E3F047DD9DC0E0F09EC05D
:100C8C00E1F09FC0E2F0A0C0E3F03EDD1FDE800E7D
:100C9C00000A006E800E9619005C08E2800E961910
:100CAC00006E800E3F0A005C01E205D098510008EE
:100CBC00006E00C098F0DA6B020EDA5DD8B0B0D0DE
:100CCC00DAC000F0000E016E0036009001360036DE
:100CDC0000900136990E0024E96E000E0120EA6E98
:100CEC00040E006EE00EE16E000EE26EEECFE6FF3B
:100CFC000006FCE1040E006EE40EE16E000EE26EE6
:100D0C00950EE96E000EEA6EEECFE6FF0006FCE1F2
:100D1C00DAC0E8F0BBEC01F00052D8B47FD09751A8
:100D2C000008006E00C097F0DAC000F0000E016EF3
:100D3C00003600900136003600900136990E0026E0
:100D4C00000E0122010E0024E96E000E0120EA6E55
:100D5C00030E0024D96E000E0120DA6EDE50EE2454
:100D6C00DB6F9651DB5F1CD0030E986F3ED0030EE9
:100D7C00986F3BD0020E986F38D0020E986F35D01A
:100D8C00986B33D0986B31D0FE0E986F2ED0FE0E30
:100D9C00986F2BD0FD0E986F28D0FD0E986F25D034
:100DAC00DB51000AE1E0DB51010AE1E0DB51020A10
:100DBC00E1E0DB51030AE1E0000EDBBFFF0E006E49
:100DCC00000E001802E1040EDB19DAE0DB51050A13
:100DDC00D9E0DB51060AD8E0DB51070AD8E0DB5139
:100DEC00080AD8E0DB51090AD8E0800E000A006E30
:100DFC00800E9719005C09E2800E9519006E800E2A
:100E0C00000A005CD8A0956B09D0800E7F0A006E9A
:100E1C00800E9519005C02E27F0E956FDA2B4CD791
:020E2C001200B2
:100E2E00000178510A0AD8A4C1D0DB51000A6DE145
:100E3E00DAC000F0000E016E00360090013600366A
:100E4E0000900136990E0026000E0122010E00249C
:100E5E00E96E000E0120EA6EEECF03F0030E0024C1
:100E6E00D96E000E0120DA6EDE503F08016E026A66
:100E7E00000E025A800E006E800E0218005C02E117
:100E8E000150035C20E3DAC000F0000E016E003664
:100E9E0000900136003600900136990E0026000EA5
:100EAE000122010E0024E16E000E0120E26E030EFF
:100EBE000024D96E000E0120DA6EDE503F08006E5F
:100ECE0000C0E6FF21D0DAC000F0000E016E003641
:100EDE0000900136003600900136990E0026000E65
:100EEE000122010E0024026E000E0120036E02C0CC
:100EFE00E9FF03C0EAFF020EEE24006E02C0E1FF1E
:100F0E0003C0E2FF00C0E6FF51D0DB51010A4EE103
:100F1E00DAC000F0000E016E003600900136003689
:100F2E0000900136990E0026000E0122010E0024BB
:100F3E00E96E000E0120EA6EEE50000816E3DAC0EC
:100F4E0000F0000E016E0036009001360036009063
:100F5E000136990E0026000E0122010E0024E16ECC
:100F6E00000E0120E26EE66A21D0DAC000F0000E1B
:100F7E00016E003600900136003600900136990E53
:100F8E000026000E0122010E0024026E000E01202A
:100F9E00036E02C0E9FF03C0EAFF020EEE5C006EB4
:0E0FAE0002C0E1FF03C0E2FF00C0E6FF120038
:100FBC00300E00018C5D006E00C095F0300E8D5D22
:100FCC00006E00C096F0300E8E5D736F300E8F5D2C
:100FDC00746F300E905D006E00C09AF0300E915D13
:080FEC00006E00C09EF012002F
:100FF4000001DA6BDB6BDB6B020EDB5DD8B089D0F2
:10100400DB51000A02E1320EDA6FDB51010A02E120
:101014004A0EDA6F730EE96E000EEA6EDB51E926B2
:10102400D8B0EA2AEE50000A0AE1300EE06FDAC0C6
:10103400E1F0E26B010EE36FE0EC03F068D0730EB5
:10104400E96E000EEA6EDB51E926D8B0EA2AEE50CA
:10105400010A0AE1310EE06FDAC0E1F0E26B010E41
:10106400E36FE0EC03F053D0730EE96E000EEA6E0A
:10107400DB51E926D8B0EA2AEE50020A0AE1320E20
:10108400E06FDAC0E1F0E26B010EE36FE0EC03F035
:101094003ED0730EE96E000EEA6EDB51E926D8B03D
:1010A400EA2AEE50030A0AE1330EE06FDAC0E1F0F7
:1010B400E26B010EE36FE0EC03F029D0730EE96EEE
:1010C400000EEA6EDB51E926D8B0EA2AEE50040A93
:1010D4000AE1340EE06FDAC0E1F0E26B010EE36F77
:1010E400E0EC03F014D0730EE96E000EEA6EDB51EF
:1010F400E926D8B0EA2AEE50050A09E1350EE06F78
:10110400DAC0E1F0E26B010EE36FE0EC03F0DB2BFD
:0411140073D712007B
:10111800040E00019A25006E016A000E012200C02B
:10112800DAF098C0DBF053EC02F0030E046E000E08
:10113800056E91EC02F008C000F009C001F000C093
:10114800DCF001C0DDF0000175510A0AD8A4DAD03C
:1011580099C0E0F09AC0E1F09BC0E2F09CC0E3F0D7
:101168008AEC03F0800EDB19006E800E000A005C2A
:1011780003E2DB510008DB6F800E000A006E800E70
:101188009719005C21E20DD01ED0020E9A25006E40
:1011980000C09AF018D0020E9A5D006E00C09AF056
:1011A80012D0000EDD1902E1000EDC19EDE0000E90
:1011B800DD1902E1010EDC19E8E0000EDD1902E19B
:1011C800020EDC19E8E09ED0800E9519006E800EA4
:1011D800400A005CD8B096D0800E000A006E800EDF
:1011E8009819005C3FE2800E006E800E96BF7F0E5D
:1011F800005C02E19651DA5D1DE2DB519A25016E31
:10120800026A000EDBBFFF0E0222800E0218006E7B
:10121800800E005C02E1400E015C06E2DB519A257B
:10122800006E00C09AF005D09C513F08006E00C0C7
:101238009AF018D0DB519A5D016E026A000EDBBF8E
:10124800FF0E025A800E006E800E0218005C02E14A
:101258000150000806E2DB519A5D006E00C09AF06A
:1012680001D09A6B800E9819006E800E000A005CFF
:1012780031E2800E96BF7F0E006E800E005C02E1A8
:10128800DA51965D19E2DB519A5D016E026A000E31
:10129800DBBFFF0E025A800E006E800E0218005C43
:1012A80002E10150000806E2DB519A5D006E00C0C1
:1012B8009AF001D09A6B0ED0400E9A5D06E2DB518F
:1012C8009A25006E00C09AF005D09C513F08006E28
:1012D80000C09AF09851000A15E1800E96BF7F0E63
:1012E800006E800E005C02E1DA51965D06E2030EA4
:1012F8009A5D006E00C09AF005D0030E9A25006E24
:0613080000C09AF0120083
:10130E0068EC10F00001D76B300ED86FD96B826A83
:10131E00948094829DEC04F0E06B60EC03F0B88650
:10132E00B06ACF0EAF6EAC841FEC05F0030E0B6EE1
:10133E00080E0C6E770E0D6E0D2EFED70C2EFCD7F2
:10134E000B2EFAD70CEC05F0F3EC04F00B0E0B6E33
:10135E00260E0C6E5D0E0D6E0D2EFED70C2EFCD7CE
:10136E000B2EFAD70000000071D30001DA6BD3EC1C
:10137E0004F000C077F00050140837E3250EDA6F42
:10138E00000EDB6F0F0EDC6FDD6B010EDE6F4BECB4
:10139E0005F00B0E0B6E260E0C6E5D0E0D6E0D2EE9
:1013AE00FED70C2EFCD70B2EFAD700000000DA6BFE
:1013BE00D3EC04F000C077F0820EE06F0F0EE16FF9
:1013CE00010EE26F010EE36FE46B1BEC02F00052B4
:1013DE0003E0010E766F05D0C80E775D01E301D0F4
:1013EE00E6D7E06B60EC03F048D0C80E775D3DE3C6
:1013FE00300EDA6F000EDB6F0F0EDC6FDD6B010E41
:10140E00DE6F4BEC05F00B0E0B6E260E0C6E5D0EAA
:10141E000D6E0D2EFED70C2EFCD70B2EFAD700001C
:10142E000000DA6BD3EC04F000C077F0820EE06FB0
:10143E000F0EE16F010EE26F010EE36FE46B1BEC1A
:10144E0002F0005206E0020E766FE06B60EC03F0E5
:10145E0008D07751140804E3E06B60EC03F001D080
:10146E00E0D7E06B60EC03F008D07651010A04E09F
:10147E007651020A01E001D001D077D7F4D2020EE4
:10148E000B6E040E0C6EBA0E0D6E0D2EFED70C2EBC
:10149E00FCD70B2EFAD70000E06B60EC03F06CEC7F
:1014AE0004F0DA6BD3EC04F000C077F075510A0843
:1014BE00D8A0756B78510A08D8A0786BBE0E775DF0
:1014CE001AE39DC0E0F0020E9E5DE16F9FC0E2F058
:1014DE00A0C0E3F08AEC03F0010EDA6FDB6BA0DC48
:1014EE009DC0EAF09EC0EBF09FC0ECF0A0C0EDF006
:1014FE0083EC01F01DD077511E081AE39DC0E0F079
:10150E00020E9E25E16F9FC0E2F0A0C0E3F08AECD0
:10151E0003F0010EDA6F010EDB6F82DC9DC0EAF084
:10152E009EC0EBF09FC0ECF0A0C0EDF083EC01F09C
:10153E00F6EC05F095C0EAF096C0EBF04AEC01F03F
:10154E00E4DD99C0EAF09AC0EBF09BC0ECF09CC0D1
:10155E00EDF083EC01F047DDCBEC05F000C0D5F0EB
:10156E000050000A41E00001D551010A1DE1150E9F
:10157E00DA6F000EDB6F2B0EDC6F040EDD6F010ECB
:10158E00DE6F4BEC05F0660E0B6E760E0C6EC10E1A
:10159E000D6E0D2EFED70C2EFCD70B2EFAD7E06B50
:1015AE0060EC03F0766B24D0D551020A1DE11D0EBE
:1015BE00DA6F000EDB6F2B0EDC6F040EDD6F010E8B
:1015CE00DE6F4BEC05F0660E0B6E760E0C6EC10EDA
:1015DE000D6E0D2EFED70C2EFCD70B2EFAD7E06B10
:1015EE0060EC03F0766B04D00001752B782B59D785
:1015FE003AD26CEC04F0E06B60EC03F00B0E0B6E69
:10160E00260E0C6E5D0E0D6E0D2EFED70C2EFCD71B
:10161E000B2EFAD70000000045EC01F00050000A36
:10162E001BE100013C0EDA6F000EDB6FDC6BDD6B35
:10163E00010EDE6F4BEC05F0310EEA6F7CEC01F023
:10164E0045EC01F00050010A01E101D0EAD700019A
:10165E00E06B60EC03F039D0D66BC80ED65D07E2B6
:10166E00310EEA6F7CEC01F00001D62BF6D7640E3A
:10167E00DA6F000EDB6FDC6BDD6B010EDE6F4BEC99
:10168E0005F03CEC01F000C0D8F0820E0001E06FD6
:10169E000F0EE16F010EE26F010EE36FE46B1BECB8
:1016AE0002F0005208E0330EEA6F7CEC01F0010EFE
:1016BE000001D76F07D0D851330A03E1020ED76F5E
:1016CE0001D0DFD7E06B60EC03F0060E0B6E130E4D
:1016DE000C6EAD0E0D6E0D2EFED70C2EFCD70B2EF6
:1016EE00FAD700000000D751010AD8A4F9D0DA6B5E
:1016FE00D3EC04F000C077F075510508D8A0756BD7
:10170E0078510A08D8A0786BBE0E775D1AE399C09F
:10171E00E0F0020E9A5DE16F9BC0E2F09CC0E3F038
:10172E008AEC03F0DA6BDB6B17EC07F099C0EAF08A
:10173E009AC0EBF09BC0ECF09CC0EDF083EC01F096
:10174E001DD0775119081AE399C0E0F0020E9A25C0
:10175E00E16F9BC0E2F09CC0E3F08AEC03F0DA6B21
:10176E00010EDB6F17EC07F099C0EAF09AC0EBF0B0
:10177E009BC0ECF09CC0EDF083EC01F045EC01F069
:10178E000050000A01E1FAD73CEC01F00050310A9A
:10179E001CE19DC0E0F0020E00019E5DE16F9FC056
:1017AE00E2F0A0C0E3F08AEC03F0010EDA6FDB6B1F
:1017BE0017EC07F09DC0EAF09EC0EBF09FC0ECF076
:1017CE00A0C0EDF083EC01F021D03CEC01F0005014
:1017DE00320A1CE19DC0E0F0020E00019E25E16F71
:1017EE009FC0E2F0A0C0E3F08AEC03F0010EDA6FC6
:1017FE00010EDB6F17EC07F09DC0EAF09EC0EBF018
:10180E009FC0ECF0A0C0EDF083EC01F0F6EC05F01B
:10181E0095C0EAF096C0EBF04AEC01F0FAEC07F056
:10182E0088EC05F08C0EDA6F000EDB6F7DEC05F0A8
:10183E005BEC03F00050010A01E0FAD7CBEC05F0A7
:10184E0000C0D5F00050000A47E00001D551010A52
:10185E001DE1550EDA6F000EDB6F2B0EDC6F040EE2
:10186E00DD6F010EDE6F4BEC05F0660E0B6E760E25
:10187E000C6EC10E0D6E0D2EFED70C2EFCD70B2E40
:10188E00FAD7E06B60EC03F0766B2AD0D551020AE2
:10189E0023E15D0EDA6F000EDB6F2B0EDC6F040E94
:1018AE00DD6F010EDE6F4BEC05F0660E0B6E760EE5
:1018BE000C6EC10E0D6E0D2EFED70C2EFCD70B2E00
:1018CE00FAD7C50EE06F000EE16FF4EC02F0E06B9C
:1018DE0060EC03F0766B04D00001752B782B07D7E4
:1018EE00D751020AD8A4B1D00001010EDA6FD3ECA1
:1018FE0004F000C077F0A1EC05F0BE0E775D03E3B7
:10190E00310ED96F08D07751190803E3320ED96F13
:10191E0002D0300ED96FD9C0DAF0C1EC05F08C0EC2
:10192E000001DA6F000EDB6FAEEC05F0DEEC07F0B7
:10193E00A151951904E1A251961901E107D0A1C058
:10194E00F3F0A2C0F4F0F56B73EC00F0A6519A1907
:10195E000AE099C0E0F0A6C0E1F09BC0E2F09CC0A6
:10196E00E3F08AEC03F0AA519E190AE09DC0E0F064
:10197E00AAC0E1F09FC0E2F0A0C0E3F08AEC03F051
:10198E00FAEC07F099C0EAF09AC0EBF09BC0ECF0CD
:10199E009CC0EDF083EC01F09DC0EAF09EC0EBF030
:1019AE009FC0ECF0A0C0EDF083EC01F095C0EAF022
:1019BE0096C0EBF04AEC01F0CBEC05F000C0D5F090
:1019CE000050000A41E00001D551010A1DE1830ECD
:1019DE00DA6F000EDB6F2B0EDC6F040EDD6F010E67
:1019EE00DE6F4BEC05F0660E0B6E760E0C6EC10EB6
:1019FE000D6E0D2EFED70C2EFCD70B2EFAD7E06BEC
:101A0E0060EC03F0766B21D0D551020A1DE1790E00
:101A1E00DA6F000EDB6F2B0EDC6F040EDD6F010E26
:101A2E00DE6F4BEC05F0660E0B6E760E0C6EC10E75
:101A3E000D6E0D2EFED70C2EFCD70B2EFAD7E06BAB
:101A4E0060EC03F0766B01D04FD70DD000017651CC
:101A5E00000AD8B48AD47651010AD8B410D576517A
:0A1A6E00020AD8B4C6D580D4FFD711
:1020D00010EE15F0770E006E010E016E580EF66EC2
:0E20E000200EF76E000EF86ECBEC04F012002E
:101A7800000000000000000000000000000000005E
:101A8800000000000000000000000000000000004E
:101A9800000000000000000000000000000000003E
:101AA80000000000002020E0202000E0A0A020008E
:101AB800E0202020000000000000000000000000DE
:101AC800000000000000000000000000000000000E
:101AD80000000000000000000000000000000000FE
:101AE80000000000000000000000000000000000EE
:101AF80000000000000000000000000000000000DE
:101B0800000000000000000000000000000000804D
:101B180000000000000000000000000000000000BD
:101B28000000000000000007000000070404040093
:101B3800070404040000000000000000000000800A
:101B4800000000000000000000000000800000000D
:101B5800000000000000000000000000000000007D
:101B6800000000000000000000000000000000006D
:101B7800000000000000000000000000000000005D
:101B88000000000017151D001D0017151D00011F7E
:101B980001001F151517001F020E021E001D151F3C
:101BA800000017151D00000000001F151517001F65
:101BB800020E021E007E12121E001F111F00011FBE
:101BC80001001F0202001D151F001E121F001F1119
:101BD8001F0017151D000000000000000000000095
:101BE80000000000000000000000000000000000ED
:101BF80000000000000000000000000000000000DD
:101C080000000000000000000000000000000000CC
:101C180000000000000000000000000000000000BC
:101C280000000000000000000000000000000000AC
:101C380000000000000000E0A0A02000C08080009C
:101C4800C080808000C04040C000C040400040E0EC
:101C58004000C040C000000000E0A0A0E00000007C
:101C6800000000000000000000000000000000006C
:101C7800000000000000000000007E0618607E00E2
:101C880074007C4444007C447C007E0074547C00D6
:101C98005C5454740000007E0A0A0E0040000000E4
:101CA800000000000000000000000000000000002C
:101CB8000000000000000007040404000700000002
:101CC80007000007000705050500050507000007D0
:101CD80000000704070000000007000106000400D8
:101CE80000000000000000000000000000000000EC
:101CF800000000000000000000007E4252720074E4
:101D0800547C007E5070007C08080074007C545499
:101D18005C00007E0000007E0A1A6E004000000091
:101D280000000000000000000000000000000000AB
:101D3800000000000000FCFC0404040404FCF8009B
:101D48000000C0F0380C0C38F0C0000000FCFCFCAF
:101D5800F8C000FCFC00000000C0F0381C0C0404B3
:101D68000400000000000000000000000000000067
:101D7800000000000000000000007E425272007C5B
:101D880054545C007C080878007C54545C005C5413
:101D980074000074005C54740000007E0618067E0F
:101DA80000400000000000000000000000000000EB
:101DB8000000000000001F1F0101010101010000D7
:101DC800000001070E18180E07010000001F1F0071
:101DD800030F1F1F1F000000000F1F101011191FF5
:101DE8000E000000000000000000000000000000DD
:101DF80000000000000000000000000000000000DB
:101E080000000000000000000000000000000000CA
:101E180000000000000000000000000000000000BA
:101E280000000000000000000000000000000000AA
:101E3800000000000000000000000000000000009A
:101E4800000000000000000000000000000000008A
:101E5800000000000000000000000000000000007A
:101E6800000000000000000000000000000000006A
:101E7800000000000000005F0000000700070014D9
:101E88007F147F14242A7F2A122313086462364998
:101E98005522500005030000001C22410000412289
:101EA8001C00082A1C2A0808083E080800503000B0
:101EB8000008080808080030300000201008040254
:101EC8003E5149453E00427F40004261514946210A
:101ED80041454B311814127F1027454545393C4A76
:101EE80049493001710905033649494936064949C6
:101EF800291E00363600000056360000000814225D
:101F08004114141414144122140800020151090642
:101F1800324979413E7E1111117E7F494949363E49
:101F2800414141227F4141221C7F494949417F0962
:101F38000901013E414151327F0808087F00417F75
:101F480041002040413F017F081422417F4040402A
:101F5800407F0204027F7F0408107F3E4141413EDA
:101F68007F090909063E4151215E7F091929464624
:101F78004949493101017F01013F4040403F1F204D
:101F880040201F7F2018207F6314081463030478FF
:101F98000403615149454300007F41410204081090
:101FA8002041417F000004020102044040404040BB
:101FB800000102040020545454787F4844443838BF
:101FC80044444420384444487F3854545418087EC4
:101FD800090102081454543C7F0804047800447D25
:101FE80040002040443D00007F10284400417F40CD
:101FF800007C041804787C08040478384444443885
:102008007C14141408081414187C7C080404084868
:1020180054545420043F4440203C4040207C1C2021
:1020280040201C3C4030403C44281028440C505070
:10203800503C4464544C44000836410000007F0082
:1020480000004136080008082A1C08081C2A08084D
:0820580050432057494E53008C
:08206000594F552057494E006D
:0B2068006F6E6520706C61796572007E
:0C2073006D756C7469706C6179657200A9
:10207F0057616974696E6720666F72206F74686547
:09208F007220706C617965720029
:0820980050312057494E53005E
:0720A00050322057494E00A9
:0F20A700507265737320746F20737461727400CC
:0220B600000028
:0120B8000027
:0120B9000026
:0120BA000025
:0120BB000024
:0720BC0050322057494E008D
:0320C3004F4B0080
:0820C60050312057494E530030
:0120CE0030E1
:020000040030CA
:0E000000210C3F1EFF8381FF0FC00FE00F4059
:00000001FF
